{
  "contractName": "contactStorage",
  "abi": [
    {
      "constant": false,
      "inputs": [],
      "name": "kill",
      "outputs": [],
      "payable": false,
      "stateMutability": "nonpayable",
      "type": "function"
    },
    {
      "constant": false,
      "inputs": [
        {
          "name": "_newContact",
          "type": "bytes32"
        }
      ],
      "name": "addContacts",
      "outputs": [
        {
          "name": "success",
          "type": "bool"
        }
      ],
      "payable": false,
      "stateMutability": "nonpayable",
      "type": "function"
    },
    {
      "constant": true,
      "inputs": [],
      "name": "getContacts",
      "outputs": [
        {
          "name": "",
          "type": "bytes32[]"
        }
      ],
      "payable": false,
      "stateMutability": "view",
      "type": "function"
    },
    {
      "constant": true,
      "inputs": [
        {
          "name": "",
          "type": "uint256"
        }
      ],
      "name": "contacts",
      "outputs": [
        {
          "name": "",
          "type": "bytes32"
        }
      ],
      "payable": false,
      "stateMutability": "view",
      "type": "function"
    }
  ],
  "bytecode": "0x60606040526020604051908101604052807f596f757220636f6e74616374733a0000000000000000000000000000000000006000191660001916815250600190600161004c929190610092565b50336000806101000a81548173ffffffffffffffffffffffffffffffffffffffff021916908373ffffffffffffffffffffffffffffffffffffffff16021790555061010a565b8280548282559060005260206000209081019282156100d4579160200282015b828111156100d35782518290600019169055916020019190600101906100b2565b5b5090506100e191906100e5565b5090565b61010791905b808211156101035760008160009055506001016100eb565b5090565b90565b610346806101196000396000f300606060405260043610610062576000357c0100000000000000000000000000000000000000000000000000000000900463ffffffff16806341c0e1b5146100675780637b05edab1461007c578063db920b77146100bb578063e0f478cb14610125575b600080fd5b341561007257600080fd5b61007a610164565b005b341561008757600080fd5b6100a16004808035600019169060200190919050506101f5565b604051808215151515815260200191505060405180910390f35b34156100c657600080fd5b6100ce61022f565b6040518080602001828103825283818151815260200191508051906020019060200280838360005b838110156101115780820151818401526020810190506100f6565b505050509050019250505060405180910390f35b341561013057600080fd5b6101466004808035906020019091905050610291565b60405180826000191660001916815260200191505060405180910390f35b6000809054906101000a900473ffffffffffffffffffffffffffffffffffffffff1673ffffffffffffffffffffffffffffffffffffffff163373ffffffffffffffffffffffffffffffffffffffff1614156101f3576000809054906101000a900473ffffffffffffffffffffffffffffffffffffffff1673ffffffffffffffffffffffffffffffffffffffff16ff5b565b60006001805480600101828161020b91906102b5565b91600052602060002090016000849091909150906000191690555060019050919050565b6102376102e1565b600180548060200260200160405190810160405280929190818152602001828054801561028757602002820191906000526020600020905b8154600019168152602001906001019080831161026f575b5050505050905090565b6001818154811015156102a057fe5b90600052602060002090016000915090505481565b8154818355818115116102dc578183600052602060002091820191016102db91906102f5565b5b505050565b602060405190810160405280600081525090565b61031791905b808211156103135760008160009055506001016102fb565b5090565b905600a165627a7a72305820a7e5e57e541b67aa2c7555aebab9dd031c27c166853687dfe0b109efc63b43ff0029",
  "source": "pragma solidity ^0.4.18;\n\ncontract mortal {\n    /* Define variable owner of the type address */\n    address owner;\n\n    /* This function is executed at initialization and sets the owner of the contract */\n    function mortal() { owner = msg.sender; }\n\n    /* Function to recover the funds on the contract */\n    function kill() { if (msg.sender == owner) selfdestruct(owner); }\n}\n\ncontract contactStorage is mortal {\n    \n    bytes32[] public contacts = [bytes32('Your contacts:')];\n\n    /* Save function */\n    function addContacts(bytes32 _newContact) public returns (bool success) {\n        contacts.push(_newContact);\n        return true;\n    }\n\n    /* Retrieve function */\n    function getContacts() constant returns (bytes32[]) {\n        return contacts;\n    }\n}",
  "sourcePath": "/Users/nikolai/Desktop/stuff/Produce/project_hackathons/Hackathon14 blockchain/contactStorage/contracts/contactStorage.sol",
  "compiler": {
    "name": "solc",
    "version": "0.4.18+commit.9cf6e910.Emscripten.clang"
  },
  "schemaVersion": "1.0.1",
  "updatedAt": "2018-06-25T06:08:46.174Z"
}