{
  "contractName": "contacts",
  "abi": [
    {
      "constant": true,
      "inputs": [
        {
          "name": "",
          "type": "uint256"
        }
      ],
      "name": "appointments",
      "outputs": [
        {
          "name": "",
          "type": "bytes32"
        }
      ],
      "payable": false,
      "stateMutability": "view",
      "type": "function"
    },
    {
      "constant": false,
      "inputs": [],
      "name": "kill",
      "outputs": [],
      "payable": false,
      "stateMutability": "nonpayable",
      "type": "function"
    },
    {
      "constant": false,
      "inputs": [
        {
          "name": "_one",
          "type": "bytes32"
        },
        {
          "name": "_two",
          "type": "bytes32"
        },
        {
          "name": "_three",
          "type": "bytes32"
        }
      ],
      "name": "setContacts",
      "outputs": [
        {
          "name": "success",
          "type": "bool"
        }
      ],
      "payable": false,
      "stateMutability": "nonpayable",
      "type": "function"
    },
    {
      "constant": true,
      "inputs": [],
      "name": "getContacts",
      "outputs": [
        {
          "name": "",
          "type": "bytes32"
        },
        {
          "name": "",
          "type": "bytes32"
        },
        {
          "name": "",
          "type": "bytes32"
        }
      ],
      "payable": false,
      "stateMutability": "view",
      "type": "function"
    }
  ],
  "bytecode": "0x60606040526060604051908101604052807f6173646600000000000000000000000000000000000000000000000000000000600019166000191681526020017f6173646600000000000000000000000000000000000000000000000000000000600019166000191681526020017f6173646600000000000000000000000000000000000000000000000000000000600019166000191681525060019060036100a89291906100ee565b50336000806101000a81548173ffffffffffffffffffffffffffffffffffffffff021916908373ffffffffffffffffffffffffffffffffffffffff160217905550610166565b828054828255906000526020600020908101928215610130579160200282015b8281111561012f57825182906000191690559160200191906001019061010e565b5b50905061013d9190610141565b5090565b61016391905b8082111561015f576000816000905550600101610147565b5090565b90565b61031f806101756000396000f300606060405260043610610062576000357c0100000000000000000000000000000000000000000000000000000000900463ffffffff16806312dc90131461006757806341c0e1b5146100a65780634f555f8c146100bb578063db920b7714610114575b600080fd5b341561007257600080fd5b6100886004808035906020019091905050610163565b60405180826000191660001916815260200191505060405180910390f35b34156100b157600080fd5b6100b9610187565b005b34156100c657600080fd5b6100fa6004808035600019169060200190919080356000191690602001909190803560001916906020019091905050610218565b604051808215151515815260200191505060405180910390f35b341561011f57600080fd5b610127610290565b60405180846000191660001916815260200183600019166000191681526020018260001916600019168152602001935050505060405180910390f35b60018181548110151561017257fe5b90600052602060002090016000915090505481565b6000809054906101000a900473ffffffffffffffffffffffffffffffffffffffff1673ffffffffffffffffffffffffffffffffffffffff163373ffffffffffffffffffffffffffffffffffffffff161415610216576000809054906101000a900473ffffffffffffffffffffffffffffffffffffffff1673ffffffffffffffffffffffffffffffffffffffff16ff5b565b6000836001600081548110151561022b57fe5b906000526020600020900181600019169055508260018081548110151561024e57fe5b90600052602060002090018160001916905550816001600281548110151561027257fe5b90600052602060002090018160001916905550600190509392505050565b6000806000600160008154811015156102a557fe5b9060005260206000209001546001808154811015156102c057fe5b906000526020600020900154600160028154811015156102dc57fe5b9060005260206000209001549250925092509091925600a165627a7a72305820176eac361b7d30c57a214da2277c42c5d687d6c83ec33666bfa2efbc609987880029",
  "source": "pragma solidity ^0.4.18;\n\ncontract mortal {\n    /* Define variable owner of the type address */\n    address owner;\n\n    /* This function is executed at initialization and sets the owner of the contract */\n    function mortal() { owner = msg.sender; }\n\n    /* Function to recover the funds on the contract */\n    function kill() { if (msg.sender == owner) selfdestruct(owner); }\n}\n\ncontract contacts is mortal {\n    \n    bytes32[] public appointments = [bytes32('asdf'), bytes32('asdf'), bytes32('asdf')];\n\n    /* Save function */\n    function setContacts(bytes32 _one, bytes32 _two, bytes32 _three) public returns (bool success) {\n        appointments[0] = _one;\n        appointments[1] = _two;\n        appointments[2] = _three;\n        return true;\n    }\n\n    /* Retrieve function */\n    function getContacts() constant returns (bytes32, bytes32, bytes32) {\n        return (appointments[0], appointments[1], appointments[2]);\n    }\n}",
  "sourcePath": "/Users/nikolai/Desktop/stuff/Produce/project_hackathons/Hackathon16 Blockchain/contactchain/contracts/contacts bakcup.sol",
  "compiler": {
    "name": "solc",
    "version": "0.4.18+commit.9cf6e910.Emscripten.clang"
  },
  "schemaVersion": "1.0.1",
  "updatedAt": "2018-01-22T21:56:46.799Z"
}